:020000040000FA
:100000000C9462000C948A000C948A000C948A0070
:100010000C948A000C948A000C948A000C948A0038
:100020000C948A000C948A000C948A000C94DA06D2
:100030000C948A000C948A000C948A000C948A0018
:100040000C9490060C948A000C945E060C9438066E
:100050000C948A000C948A000C948A000C948A00F8
:100060000C9496070C948A000000000023002600E0
:10007000290000000008000201000003040700003E
:1000800000000000000000000000250028002B00F8
:1000900000000000240027002A00040404040404D3
:1000A0000404020202020202030303030303010227
:1000B00004081020408001020408102001020408F6
:1000C0001020B50811241FBECFEFD8E0DEBFCDBF92
:1000D00011E0A0E0B1E0E8E5F0E202C005900D9289
:1000E000A835B107D9F723E0A8E5B1E001C01D921A
:1000F000A23CB207E1F710E0C2E6D0E004C02197CD
:10010000FE010E94830DC136D107C9F70E94CF09B5
:100110000C942A100C940000CF92DF92EF92FF9281
:10012000DC01A03282E0B807D4F5A53BB10514F09C
:10013000A4EBB0E04091EB0228E830E0241B310949
:1001400047FD3395220F331F220F331F6901330FF1
:10015000EE08FF084091EC0228E532E0241B31094B
:1001600047FD3395220F331F220F331F032E000C40
:10017000440B550B2C193D094E095F09B7FF02C00E
:10018000B0E0A0E00E94F70C24EB30E040E050E04B
:100190000E94CD0CC20ED31EE41EF51ED601E091C6
:1001A000EA02EC3080F52091EB0288E890E0821BB7
:1001B000910927FD9395880F991F880F991FA817FC
:1001C000B90784F02091EC0288E592E0821B910946
:1001D00027FD9395880F991F880F991FA817B907B6
:1001E0000CF4CD010297880F991F4FB7F8942E2F6A
:1001F00030E0F901EE0FFF1FE20FF31FEF53FD4F49
:10020000928381834FBFFF90EF90DF90CF9008954E
:1002100008950895AF92BF92CF92DF92EF92FF922E
:100220000F931F93CF93DF936C017B018B01040F1E
:10023000151FEB015E01AE18BF08C017D10759F0BA
:100240006991D601ED91FC910190F081E02DC601FC
:100250000995892B79F7C501DF91CF911F910F91F6
:10026000FF90EF90DF90CF90BF90AF900895FC018A
:10027000538D448D252F30E0842F90E0821B930B0B
:10028000541710F0CF96089501970895FC01918DB1
:10029000828D981761F0A28DAE0FBF2FB11D5D96B4
:1002A0008C91928D9F5F9F73928F90E008958FEF56
:1002B0009FEF0895FC01918D828D981731F0828D0A
:1002C000E80FF11D858D90E008958FEF9FEF089561
:1002D000FC01918D228D892F90E0805C9F4F821BC5
:1002E00091098F739927089588E192E00E9468012F
:1002F00021E0892B09F420E0822F089580E090E02E
:10030000892B29F00E94740181110C94000008953A
:10031000FC01A48DA80FB92FB11DA35ABF4F2C917A
:10032000848D90E001968F739927848FA689B78971
:100330002C93A089B1898C91837080648C93938D68
:10034000848D981306C00288F389E02D80818F7D0B
:1003500080830895EF92FF920F931F93CF93DF93C3
:10036000EC0181E0888F9B8D8C8D98131AC0E889F1
:10037000F989808185FF15C09FB7F894EE89FF89C0
:100380006083E889F98980818370806480839FBF5E
:1003900081E090E0DF91CF911F910F91FF90EF905E
:1003A0000895F62E0B8D10E00F5F1F4F0F7311276E
:1003B000E02E8C8D8E110CC00FB607FCFACFE889A9
:1003C000F989808185FFF5CFCE010E948801F1CFA8
:1003D000EB8DEC0FFD2FF11DE35AFF4FF0829FB71D
:1003E000F8940B8FEA89FB8980818062CFCFCF930D
:1003F000DF93EC01888D8823B9F0AA89BB89E8894D
:10040000F9898C9185FD03C0808186FD0DC00FB6F2
:1004100007FCF7CF8C9185FFF2CF808185FFEDCF70
:10042000CE010E948801E9CFDF91CF9108958330FA
:1004300081F028F4813099F08230A9F00895873056
:10044000A9F08830C9F08430B1F4809180008F7DAC
:1004500003C0809180008F7780938000089584B5D9
:100460008F7784BD089584B58F7DFBCF8091B000D8
:100470008F778093B00008958091B0008F7DF9CF81
:100480001F93CF93DF93282F30E0F901EE58FF4FF1
:100490008491F901E255FF4FD491F901E656FF4FDF
:1004A000C491CC23A9F0162F81110E941702EC2FC2
:1004B000F0E0EE0FFF1FEA57FF4FA591B4918FB701
:1004C000F894EC91111108C0D095DE23DC938FBF16
:1004D000DF91CF911F910895DE2BF8CF3FB7F894AD
:1004E00080910C0290910D02A0910E02B0910F022A
:1004F00026B5A89B05C02F3F19F00196A11DB11D7F
:100500003FBFBA2FA92F982F8827BC01CD01620FBA
:10051000711D811D911D42E0660F771F881F991F75
:100520004A95D1F708958F929F92AF92BF92CF9242
:10053000DF92EF92FF924B015C010E946E026B0111
:100540007C010E946E026C197D098E099F09683E2C
:10055000734081059105A8F321E0821A9108A10852
:10056000B10888EEC80E83E0D81EE11CF11C81148E
:100570009104A104B10429F7FF90EF90DF90CF9090
:10058000BF90AF909F908F9008958F929F92AF925F
:10059000BF92CF92DF92EF92FF92FC0180818E306A
:1005A00008F08E508770806480937C0080917A0080
:1005B000806480937A0080917A0086FDFCCF9091D0
:1005C000780020917900C680D7800D2C000CEE08B1
:1005D000FF0882809380092C000CAA08BB08322FE8
:1005E000292F032E000C440B550B281939094A09F1
:1005F0005B0960857185072E000C880B990B6C19BF
:100600007D098E099F090E94670D24813581032E83
:10061000000C440B550B281939094A095B090E9443
:10062000CD0CDA01C9018C0D9D1DAE1DBF1DFF90C3
:10063000EF90DF90CF90BF90AF909F908F900895F4
:100640002091C001260F3327331F21323105ECF4EE
:100650002091E401FC0190E080E0243069F082E028
:100660000895A091C0012191AC0140565E4FA40FA6
:10067000B52FB11D2C930196861798F38091C00178
:10068000680F6093C00180E0089581E008951092A2
:10069000E40181E08093E6011092E50161E082E1EE
:1006A0000E94400261E083E10E944002E9EBF0E039
:1006B00080818E7F808380818D7F808388E480939A
:1006C000B80085E48093BC000895CF93DF9391E058
:1006D00090939F018823B9F0C091B800D091BA00DF
:1006E0008091BC008A7B8093BC0060E082E10E9424
:1006F000400260E083E10E9440020E944703D093E1
:10070000BA00C093B800DF91CF9108950895E091A9
:10071000170280911602E81730F4F0E0E658FE4F19
:10072000808190E008958FEF9FEF089590911702D8
:10073000809116022FEF3FEF981748F4E92FF0E071
:10074000E658FE4F208130E09F5F90931702C90169
:1007500008958091160290911702891B990B0895B4
:10076000CF92DF92EF92FF920F931F93CF93DF937D
:100770007C01CB018A0120917901222389F0EB01D0
:100780006B01C40ED51ECC15DD0569F06991D7014A
:10079000ED91FC910190F081E02DC7010995F3CF17
:1007A000642F0E942003C801DF91CF911F910F9108
:1007B000FF90EF90DF90CF900895CF93DF931F923B
:1007C000CDB7DEB76983209179012223F9F020911A
:1007D0001402203258F021E030E0FC013383228300
:1007E00090E080E00F90DF91CF9108958091150205
:1007F000E82FF0E0E75AFE4F998190838F5F809356
:1008000015028093140281E090E0ECCF61E0CE010C
:1008100001960E942003F7CFCF92DF92EF92FF92D2
:100820000F931F93CF93DF93FC01C48121E02093AA
:100830007901C09358011092150210921402838519
:10084000682B85EB92E00E94DD03D0911402D13237
:1008500008F092C00E946E026B017C018091E4015D
:10086000811165C082E08093E40181E08093E6011C
:100870008FEF8093E30110920802D0930702A9E55D
:10088000B1E0E7EEF1E080E0D81385C010920902F4
:1008900080910902CC0FC82BC09309028091E50119
:1008A000813009F07CC01092E5010E946E026B015C
:1008B0007C01809109028093BB0080919B01909103
:1008C0009C01A0919D01B0919E01892B8A2B8B2BBD
:1008D00099F00E946E0200919B0110919C01209161
:1008E0009D0130919E016C197D098E099F090617A3
:1008F000170728073907E0F18091BC0083FDD9CFA5
:1009000085EC8093BC000E946E026B017C0180919B
:10091000E401823009F445C08091E3018F3F61F129
:100920008091E301803241F18091E30125C0809103
:100930009B0190919C01A0919D01B0919E01892BFA
:100940008A2B8B2B09F48ACF0E946E0200919B01A7
:1009500010919C0120919D0130919E016C197D099F
:100960008E099F09061717072807390708F076CF61
:1009700080919A010E946503109215021092140250
:1009800010927901DF91CF911F910F91FF90EF901D
:10099000DF90CF9008959D9191938F5F75CF85EEF5
:1009A000B0CF80919B0190919C01A0919D01B0914D
:1009B0009E01892B8A2B8B2B09F4A9CF0E946E02F2
:1009C00000919B0110919C0120919D0130919E010D
:1009D0006C197D098E099F09061717072807390723
:1009E00008F095CFC5CF089590E080E0089585ED9B
:1009F0008093BC0080919B0190919C01A0919D01EE
:100A0000B0919E010796A11DB11D23E0B695A79553
:100A1000979587952A95D1F72091BC0024FD03C0B6
:100A20001092E401089540919B0150919C016091C6
:100A30009D0170919E01452B462B472B69F3009732
:100A4000A105B10541F025E32A95F1F700000197D2
:100A5000A109B109E1CF80919A010C9465030F932C
:100A60001F93CF938C01C62F0E940C046C2F6460DF
:100A7000C8010E940C046C2F6B7FC8010E940C04FB
:100A800083EC90E00197F1F7CF911F910F910895BA
:100A90000F931F93CF93DF938C01D62FC42F607FCA
:100AA000642B0E942F0580E1D89FB00111246C2B8C
:100AB000C801DF91CF911F910F910C942F05EF92F8
:100AC000FF921F93CF93DF93CDB7DEB769970FB631
:100AD000F894DEBF0FBECDBF182F7F936F9388E3CE
:100AE00091E09F938F93CE0101967C019F938F930A
:100AF0000E94890D812F98E0E0E0F1E0DE0152963E
:100B000001900D929A95E1F7909111030F900F903B
:100B10000F900F900F900F90911710F48FEF890F97
:100B2000E82FF0E0EE0FFF1FEE0DFF1D61896068FA
:100B300040E089E093E00E944805F7010190002021
:100B4000E9F73197AF014E195F09B70189E093E0EA
:100B50000E940A0169960FB6F894DEBF0FBECDBFA2
:100B6000DF91CF911F91FF90EF900895AF92BF92C8
:100B7000CF92DF92EF92FF920F931F93CF93DF9369
:100B8000CDB7DEB761970FB6F894DEBF0FBECDBF0D
:100B90008BEF92E00E94C502082FF92E81EF92E0C0
:100BA0000E94C502E82ED92E2091ED023091EE026E
:100BB0003327F901EE58FF4F8491F901E255FF4FB9
:100BC0001491F901E656FF4FC490B12CA12CCC2012
:100BD00099F081110E941702EC2DF0E0EE0FFF1F3B
:100BE000E859FF4FA591B491EC911E2391E080E06C
:100BF00009F490E0A92EB82E802F9F2D0E948C0022
:100C000081E0A826BF92AF92DF92EF92FF920F93FE
:100C10008EE391E09F938F938E010F5F1F4F1F9381
:100C20000F930E94890D0FB6F894DEBF0FBECDBFA3
:100C30008091C103811105C0B80181E090E00E945C
:100C40005F0561960FB6F894DEBF0FBECDBFDF9192
:100C5000CF911F910F91FF90EF90DF90CF90BF90B9
:100C6000AF90089541E00E94480581E090E008952A
:100C70001F920F920FB60F9211242F933F934F9311
:100C80005F936F937F938F939F93AF93BF93EF93F4
:100C9000FF9388E192E00E948801FF91EF91BF915C
:100CA000AF919F918F917F916F915F914F913F9104
:100CB0002F910F900FBE0F901F9018951F920F92BB
:100CC0000FB60F9211242F938F939F93EF93FF935F
:100CD000E0912802F09129028081E0912E02F091AA
:100CE0002F0282FD1BC09081809131028F5F8F7334
:100CF00020913202821741F0E0913102F0E0E85E8B
:100D0000FD4F958F80933102FF91EF919F918F91CD
:100D10002F910F900FBE0F901F9018958081F4CFE8
:100D20001F920F920FB60F9211242F933F938F9320
:100D30009F93AF93BF938091E6029091E702A091B9
:100D4000E802B091E90230910B0223E0230F2D3726
:100D500058F50196A11DB11D20930B028093E60268
:100D60009093E702A093E802B093E90280910C020D
:100D700090910D02A0910E02B0910F020196A11D5B
:100D8000B11D80930C0290930D02A0930E02B093BC
:100D90000F02BF91AF919F918F913F912F910F9033
:100DA0000FBE0F901F90189526E8230F0296A11DE5
:100DB000B11DD2CF1F920F920FB60F9211242F9315
:100DC0003F934F935F936F937F938F939F93AF93D3
:100DD000BF93CF93DF93EF93FF9380910A02C0916B
:100DE000E502D0E087FF24C01092850010928400B5
:100DF00080910A028F5F80930A0280910A02082E76
:100E0000000C990B8C179D0724F480910A028C30FA
:100E1000C4F18091840090918500049680349C49AF
:100E200008F47AC08091840090918500049676C081
:100E300080910A02082E000C990B8C179D07C4F6AE
:100E4000E0910A028E2FEE0F990BFC01EE0FFF1FAF
:100E5000E80FF91FEF53FD4F808186FFC9CFE09166
:100E60000A028E2FEE0F990BFC01EE0FFF1FE80F09
:100E7000F91FEF53FD4F808160E08F730E944002A5
:100E8000B7CF2091840030918500E0910A028E2F27
:100E9000EE0F990BFC01EE0FFF1FE80FF91FEF5348
:100EA000FD4F81819281820F931F909389008093DF
:100EB0008800E0910A028E2FEE0F990BFC01EE0FD5
:100EC000FF1FE80FF91FEF53FD4F808186FF11C010
:100ED000E0910A028E2FEE0F990BFC01EE0FFF1F1F
:100EE000E80FF91FEF53FD4F808161E08F730E947F
:100EF0004002FF91EF91DF91CF91BF91AF919F9110
:100F00008F917F916F915F914F913F912F910F90B2
:100F10000FBE0F901F90189580E49CE99093890074
:100F2000809388008FEF80930A02E3CF1F920F9285
:100F30000FB60F9211242F933F934F935F936F93AC
:100F40007F938F939F93AF93BF93EF93FF93809182
:100F5000B900887F803609F44AC0F0F5883209F478
:100F6000A7C018F5803109F49BC0B8F4882309F4B0
:100F7000F9C0883009F494C0FF91EF91BF91AF910F
:100F80009F918F917F916F915F914F913F912F91A1
:100F90000F900FBE0F901F901895883109F488C0EC
:100FA000803251F78093E30114C0803409F49DC06E
:100FB00040F48033B9F38833F9F68093E30185EC8C
:100FC000B0C0803509F485C0883509F496C08834EE
:100FD00099F60E94F704D0CF883909F48CC038F50F
:100FE000883729F050F4883611F0803729F683E0ED
:100FF0008093E4011092E20157C0883809F47BC065
:10100000803919F0803809F0B7CF8091E201803241
:1010100008F071C0E091E20181E08E0F8093E2015F
:101020008091BB00F0E0EE53FE4F80833DC0803BDB
:1010300039F0E0F4803A09F479C0883A09F09CCF9D
:1010400084E08093E4011092C1011092C001E0910C
:101050001202F091130209958091C00181110FC015
:1010600081E08093C0011092A00109C0803C09F486
:10107000A6CF883C09F4A3CF883B09F07DCFE0914F
:10108000C10181E08E0F8093C101F0E0E056FE4F78
:1010900080818093BB009091C1018091C00129C0E3
:1010A000809109028093BB0085EC8093BC0064CFE3
:1010B0009091080280910702981758F5E091080274
:1010C00081E08E0F80930802F0E0E951FE4F8081AD
:1010D000E9CFE091080281E08E0F809308028091B1
:1010E000BB00F0E0E951FE4F8083909108028091AF
:1010F00007029817C8F285E8D8CFE091080281E08E
:101100008E0F809308028091BB00F0E0E951FE4F02
:1011100080838091E60181115CCF81E08093E501BD
:1011200084EA8093BC001092E40126CF85EC809382
:10113000BC001092E4018091E201803230F4E09131
:10114000E201F0E0EE53FE4F10826091E20170E0A8
:10115000E0911002F091110282EC91E00995109259
:10116000E2010ACF1092E30134CFCF93DF931092C4
:101170001B0210921A0288EE93E0A0E0B0E0809388
:101180001C0290931D02A0931E02B0931F022CE03C
:1011900031E0309319022093180225EC30E03093AF
:1011A00025022093240224EC30E030932702209380
:1011B000260220EC30E0309329022093280221EC13
:1011C00030E030932B0220932A0222EC30E030935F
:1011D0002D0220932C0226EC30E030932F02209336
:1011E0002E021092310210923202109233021092AB
:1011F00034021092B8021092B7028093B902909311
:10120000BA02A093BB02B093BC028EE191E090932E
:10121000B6028093B50280E092ECA1E0B0E080934A
:10122000050390930603A0930703B093080310925D
:101230000C0310920B0380E391E090930A038093D8
:10124000090387E280930D0380E18093120382E01B
:1012500080931303109214038FB7F8944091E60221
:101260005091E7026091E8027091E9028FBFC1EAF4
:10127000D3E0EDE3F3E025E133E01992119211920E
:10128000D9014D935D936D937D939D01CF01825B59
:101290009F4FDC011D921C92B3E0E135FB0769F71B
:1012A0001092C0031092BF031092C1038FE090E030
:1012B0009093FC028093FB021092FE021092FD02BA
:1012C0008FEF93E0909300038093FF0224EB30E0D4
:1012D000309302032093010310920403109203033E
:1012E0002EE030E03093F2022093F1021092F402EB
:1012F0001092F3029093F6028093F5028FEF90E044
:101300009093F8028093F7021092FA021092F90279
:1013100080E190E09093EE028093ED02EEEBF0E03E
:101320002491EAEAF0E084918823C1F090E0880FEC
:10133000991FFC01E057FF4FC591D491FC01EA577A
:10134000FF4FA591B4919FB7F8943881822F809573
:1013500083238883EC91E22BEC939FBF1092F002E1
:101360001092EF028091E5028C30A8F491E0980F82
:101370009093E5028093EA0290E0FC01EE0FFF1FDC
:10138000E80FF91FEF53FD4F88EB9BE092838183B9
:10139000DF91CF9108958FEF8093EA02F9CFCF9339
:1013A000DF9300D000D0CDB7DEB7789484B58260EB
:1013B00084BD84B5816084BD85B5826085BD85B5F9
:1013C000816085BD80916E00816080936E00109277
:1013D00081008091810082608093810080918100F2
:1013E0008160809381008091800081608093800083
:1013F0008091B10084608093B1008091B0008160E1
:101400008093B00080917A00846080937A0080910C
:101410007A00826080937A0080917A008160809364
:101420007A0080917A00806880937A001092C100DF
:10143000C0900503D0900603E0900703F0900803E6
:1014400060E079E08DE390E0A70196010E94360DFF
:1014500021503109410951095695479537952795EE
:10146000E0912802F091290282E08083C11441EECC
:10147000D406E104F10421F0211580E13807A8F039
:10148000E0912802F0912902108260E874E88EE170
:1014900090E0A70196010E94360D215031094109C3
:1014A00051095695479537952795E0912402F0917B
:1014B00025023083E0912602F091270220831092CA
:1014C0003002E0912C02F0912D0286E08083E091C1
:1014D0002A02F0912B02808180618083E0912A02B0
:1014E000F0912B02808188608083E0912A02F09144
:1014F0002B02808180688083E0912A02F0912B0288
:1015000080818F7D80838091C103811189C0109279
:1015100017021092160210921502109214020E94E5
:10152000470388E091E0909313028093120289E0D0
:1015300091E0909311028093100210920E0380911B
:101540001303823018F098E090930E0380931103F8
:1015500062E370E080E090E00E94930260911403E7
:1015600089E093E00E940C0468EE73E080E090E074
:101570000E94930260E389E093E00E942F058BE4D0
:1015800096E40197F1F760E389E093E00E942F056C
:10159000ABE4B6E41197F1F760E389E093E00E94D1
:1015A0002F0583E592E00197F1F760E289E093E08F
:1015B0000E942F0560910E03606240E089E093E095
:1015C0000E94480584E080930F0340E06CE089E0CE
:1015D00093E00E94480540E061E089E093E00E94CA
:1015E00048058BE39FE10197F1F782E080931003B8
:1015F00040E066E089E093E00E94480540E062E058
:1016000089E093E00E944805EBE3FFE13197F1F7B1
:1016100088E08093140360E089E093E00E940C046A
:101620008091BF039091C0030A976CF4EDE3F3E05F
:1016300090E080E021913191232B09F46AC1019659
:101640008A309105B9F78091C103811106C06AE41F
:1016500071E090E080E00E945F058091EA028C30AA
:1016600008F068C0E3EBF0E02491EFE9F0E084914A
:10167000882399F090E0880F991FFC01E057FF4FF5
:10168000A591B491FC01EA57FF4F859194918FB7D2
:10169000F894EC91E22BEC938FBF8091EA02282F13
:1016A00030E0F901EE0FFF1FE20FF31FEF53FD4F84
:1016B0009081907C956090831092EB021092EC02E6
:1016C0002CE0622F0E94770D829FB001112430E040
:1016D00020E0AB01420F531FFA01EE0FFF1FE40F92
:1016E000F51FEF53FD4F908196FD16C02F5F3F4FC2
:1016F0002C30310571F781110FC01092800082E00B
:10170000809381001092850010928400B19A80919C
:101710006F00826080936F00E091EA028E2F90E06C
:10172000FC01EE0FFF1FE80FF91FEF53FD4F808103
:10173000806480838BEF92E00E94C5020E948C003F
:1017400001E010E0B2E02B2E312C8FB7F89480909E
:10175000E6029090E702A090E802B090E9028FBF05
:10176000EDE3F3E025E033E03C832B833A832983E8
:1017700090E080E0AF0142595F4FDA011D921C9268
:10178000208131813296232BC9F1A981BA815096EB
:101790004D915D916D917C9153979D01245B3F4FDD
:1017A000D901CD90DD90ED90FC9024013501441AD3
:1017B000550A660A770A4C145D046E047F04F0F043
:1017C0004C0D5D1D6E1D7F1DA981BA8150964D93F4
:1017D0005D936D937C9353979C012F553C4FD9019A
:1017E0002C91222359F022AD33AD21153105C9F5D5
:1017F0009F0124593F4FD9010D931C9301962981D4
:101800003A812C5F3F4F3A8329838A30910509F052
:10181000B1CFF12CE12CCB80DC8036EAC30ED11C99
:10182000D6018D919C9181309105C1F10297E9F12A
:10183000BFEFEB1AFB0AEB81FC813296FC83EB8352
:10184000FAE0EF16F10439F720E030E0232B09F439
:101850007CCF0E947401882309F477CF0E94000096
:1018600074CF7F01BEE4EB0EF11CD7016D917C912A
:10187000621773071CF6AF0144595F4FDA010D93ED
:101880001C936F5F7F4FD7016D937C936217730733
:101890000CF4B4CFDA012D923C92B0CFAB81BC8175
:1018A000D896ED91FC910995C3CFAB81BC81D896B8
:1018B000ED91FC9109958091BF039091C003009731
:1018C00009F4B6CFEB81FC8120AD31AD232B09F4B7
:1018D000AFCF11AE10AEF701EF55FC4F1082D6011D
:1018E0001D921C92F701EE0FFF1FEE0FFF1FEF5A24
:1018F000FC4F1082118212821382EB81FC81E85727
:10190000FF4F1182108201979093C0038093BF0311
:101910008FCFFC01EE0FFF1FEE0FFF1FEF5BFC4FA1
:1019200044E650E060E070E0408B518B628B738B3B
:10193000FC01EE0FFF1FE35DFC4F26EB35E0318B22
:10194000208BFC01EE0FFF1FE759FC4F118A108A14
:10195000FC01EF55FC4F21E020832FB7F894409114
:10196000E6025091E7026091E8027091E9022FBF10
:10197000880F991F880F991FFC01EB5FFC4F408B6C
:10198000518B628B738B8091BF039091C003019642
:101990009093C0038093BF0356CE052E97FB1EF491
:1019A00000940E94E40C57FD07D00E94360D07FCFE
:1019B00003D04EF40C94E40C50954095309521954D
:1019C0003F4F4F4F5F4F089590958095709561956B
:1019D0007F4F8F4F9F4F08950E94580DA59F900DE8
:1019E000B49F900DA49F800D911D11240895B7FF01
:1019F0000C94EC0C0E94EC0C821B930B08952F921C
:101A00003F924F925F926F927F928F929F92AF928E
:101A1000BF92CF92DF92EF92FF920F931F93CF93DB
:101A2000DF93CDB7DEB7CA1BDB0B0FB6F894DEBF72
:101A30000FBECDBF09942A88398848885F846E8498
:101A40007D848C849B84AA84B984C884DF80EE80E2
:101A5000FD800C811B81AA81B981CE0FD11D0FB6EB
:101A6000F894DEBF0FBECDBFED010895A1E21A2E9E
:101A7000AA1BBB1BFD010DC0AA1FBB1FEE1FFF1F32
:101A8000A217B307E407F50720F0A21BB30BE40B82
:101A9000F50B661F771F881F991F1A9469F76095C9
:101AA0007095809590959B01AC01BD01CF01089583
:101AB000A29FB001B39FC001A39F700D811D11248F
:101AC000911DB29F700D811D1124911D0895DB01A0
:101AD0008F939F930E94EC0CBF91AF91A29F800DBA
:101AE000911DA39F900DB29F900D11240895991BF5
:101AF00079E004C0991F961708F0961B881F7A9505
:101B0000C9F780950895EE0FFF1F0590F491E02D21
:101B10000994AEE0B0E0EFE8FDE00C940D0D0D8906
:101B20001E8986E08C831A8309838FEF9FE79E834B
:101B30008D83AE01475E5F4F6F89788DCE01019630
:101B40000E94AC0D2F813885020F131FF8011082FF
:101B50002E96E4E00C94290DABE0B0E0E2EBFDE062
:101B60000C94FF0C7C013B018A01FC011782168258
:101B7000838181FFC8C1CE0101965C01F701938189
:101B8000F30193FD859193FF81913F01882309F42F
:101B900053C1853239F493FD859193FF81913F01C3
:101BA000853229F4B70190E00E949C0FE7CF912C79
:101BB000212C312CFFE1F31538F08B3211F190F428
:101BC000803209F1833229F137FC3CC020ED280F27
:101BD0002A3050F536FE20C08AE0989E200D112450
:101BE000922E06C08D3291F0803371F7689430F8F0
:101BF000F30193FD859193FF81913F018111DACF2C
:101C000021C0689431F8689432F8F2CF689433F8C0
:101C1000EFCF689434F8ECCFEAE02E9E200D11242B
:101C2000222E689435F8E4CF8E3229F436FC04C1B4
:101C3000689436F8DDCF8C3619F4689437F8D8CF2D
:101C40008836B1F2982F9F7D95549330E0F083361B
:101C5000A1F18337C1F1833509F063C02801F2E0B7
:101C60004F0E511CF801C080D180692D70E036FC08
:101C700002C06FEF7FEFC6010E94860F4C0168948F
:101C800037F882010AC00C5F1F4FFFE3F9838824F5
:101C90008394912C6501E89437F833FE2DC0522CC3
:101CA0008114910471F5552009F468CFB70180E2E1
:101CB00090E00E949C0F5A94F6CFF80180818983AE
:101CC0000E5F1F4FE4CF2801F2E04F0E511CF801C8
:101CD000C080D180692D70E036FC02C06FEF7FEFCD
:101CE000C6010E94910F4C018201D5CFB70180E25D
:101CF00090E00E949C0F2A942814190409F0B0F770
:101D0000CECFF60137FC859137FE81916F01B70187
:101D100090E00E949C0F51105A94F1E08F1A9108A4
:101D2000BFCF843619F0893609F077C0F80137FE45
:101D30006BC060817181828193810C5F1F4FF32D95
:101D4000FF763F2E97FF09C090958095709561951D
:101D50007F4F8F4F9F4F689437F82AE030E0A501FE
:101D60000E94CC0FC82ECA188C2C432C36FE0CC0F7
:101D7000E89440F8C91440F434FE05C032FC03C0B6
:101D8000F32DFE7E4F2E892C44FE95C0FE01EC0DF6
:101D9000F11D8081803309F087C0242D297E422ED9
:101DA000842D8870582E43FC95C040FE8FC09C2C1B
:101DB000821418F42C0C922C981844FE91C0B70190
:101DC00080E390E00E949C0F42FE09C088E790E00B
:101DD00041FE02C088E590E0B7010E949C0FC91443
:101DE00008F48AC0CA94D12C9FEFC91AD90ACA0C28
:101DF000DB1CF60182916F01B70190E00E949C0FFD
:101E0000AC14BD04B1F74FCF60817181072E000C77
:101E1000880B990B0E5F1F4F92CFD32CE894D4F808
:101E20002AE030E0853739F1232D297FD22E8F36F5
:101E300001F148F48835A9F0F701868197812B9646
:101E4000E2E10C941B0D803749F08837A9F7D4FEE6
:101E500002C06894D2F820E130E00DC06894D4F854
:101E6000F6CF34FE03C0822F8660D82E20E132E008
:101E700002C028E030E0F801D7FE0FC06081718118
:101E8000828193810C5F1F4FA5010E94CC0FC82E49
:101E9000CA183D2CE89437F867CF6081718190E0D3
:101EA00080E00E5F1F4FF0CF42FC02C0839478CFDA
:101EB0008394839475CF842D867809F471CFF6CFFF
:101EC000B70180E290E00E949C0F83948214C0F3DB
:101ED000512C73CF522C5818821408F46ECFF8CFBF
:101EE000842D867809F47BCF8BE241FE80E247FCAB
:101EF0008DE2B70190E071CFB70180E390E00E94DE
:101F00009C0F9A946CCF8FEF9FEF99CFFC010590B7
:101F1000615070400110D8F7809590958E0F9F1FEB
:101F20000895FC016150704001900110D8F7809530
:101F300090958E0F9F1F08950F931F93CF93DF935C
:101F4000182F092FEB018B8181FD09C01FEF0FEFC7
:101F5000812F902FDF91CF911F910F91089582FFD4
:101F600014C02E813F818C819D81281739073CF454
:101F7000E881F981CF0101969983888310838E814E
:101F80009F8101969F838E83E3CFE885F985812F1A
:101F90000995892BA1F3DACFFA01AA27283051F14C
:101FA000203181F1E8946F936E7F6E5F7F4F8F4F8A
:101FB0009F4FAF4FB1E03ED0B4E03CD0670F781FE9
:101FC000891F9A1FA11D680F791F8A1F911DA11DCE
:101FD0006A0F711D811D911DA11D20D009F4689407
:101FE0003F912AE0269F11243019305D3193DEF6AF
:101FF000CF010895462F4770405D4193B3E00FD065
:10200000C9F7F6CF462F4F70405D4A3318F0495D4F
:1020100031FD4052419302D0A9F7EACFB4E0A69532
:102020009795879577956795BA95C9F70097610554
:10203000710508959B01AC010A2E069457954795AA
:1020400037952795BA95C9F7620F731F841F951F9F
:10205000A01D0895F894FFCF000040001400540024
:1020600000000000AA010A013701F70168014601DA
:102070005A0100000000DD03B003F4048603A90345
:10208000960387030000000032060A01F404F304FB
:10209000252D3136730025642C202564205B2564B2
:1020A0005D005B5B6A6F79737469636B5D5D0000F3
:107E0000112484B714BE81FFF0D085E080938100F7
:107E100082E08093C00088E18093C10086E0809377
:107E2000C20080E18093C4008EE0C9D0259A86E02C
:107E300020E33CEF91E0309385002093840096BBD3
:107E4000B09BFECF1D9AA8958150A9F7CC24DD24C4
:107E500088248394B5E0AB2EA1E19A2EF3E0BF2EE7
:107E6000A2D0813461F49FD0082FAFD0023811F036
:107E7000013811F484E001C083E08DD089C08234E0
:107E800011F484E103C0853419F485E0A6D080C0E4
:107E9000853579F488D0E82EFF2485D0082F10E0AE
:107EA000102F00270E291F29000F111F8ED06801E7
:107EB0006FC0863521F484E090D080E0DECF843638
:107EC00009F040C070D06FD0082F6DD080E0C81688
:107ED00080E7D80618F4F601B7BEE895C0E0D1E017
:107EE00062D089930C17E1F7F0E0CF16F0E7DF06D8
:107EF00018F0F601B7BEE89568D007B600FCFDCFD4
:107F0000A601A0E0B1E02C9130E011968C91119780
:107F100090E0982F8827822B932B1296FA010C0160
:107F200087BEE89511244E5F5F4FF1E0A038BF0790
:107F300051F7F601A7BEE89507B600FCFDCF97BE46
:107F4000E89526C08437B1F42ED02DD0F82E2BD052
:107F50003CD0F601EF2C8F010F5F1F4F84911BD097
:107F6000EA94F801C1F70894C11CD11CFA94CF0C13
:107F7000D11C0EC0853739F428D08EE10CD085E9AC
:107F80000AD08FE07ACF813511F488E018D01DD067
:107F900080E101D065CF982F8091C00085FFFCCF94
:107FA0009093C60008958091C00087FFFCCF809118
:107FB000C00084FD01C0A8958091C6000895E0E648
:107FC000F0E098E1908380830895EDDF803219F02E
:107FD00088E0F5DFFFCF84E1DECF1F93182FE3DFCA
:107FE0001150E9F7F2DF1F91089580E0E8DFEE27F6
:047FF000FF270994CA
:027FFE00040479
:00000001FF
