:020000040000FA
:100000000C945D000C9485000C9485000C94850084
:100010000C9485000C9485000C9485000C9485004C
:100020000C9485000C9485000C9485000C9485003C
:100030000C9485000C9485000C9485000C9485002C
:100040000C9473010C9485000C9485000C9485002D
:100050000C9485000C9485000C9485000C9485000C
:100060000C9485000C94850000000008000201003B
:100070000003040700000000000000000000000072
:10008000250028002B0000000000240027002A0083
:10009000040404040404040402020202020203032E
:1000A0000303030301020408102040800102040836
:1000B00010200102040810206C0211241FBECFEF93
:1000C000D8E0DEBFCDBF11E0A0E0B1E0E0E5F7E0B1
:1000D00002C005900D92A430B107D9F721E0A4E049
:1000E000B1E001C01D92A931B207E1F710E0CDE502
:1000F000D0E004C02197FE010E94A003CC35D107B7
:10010000C9F70E94BD010C94A6030C94000090E076
:10011000FC01EC55FF4F249180579F4FFC018491C7
:10012000882399F090E0880F991FFC01EA57FF4F50
:10013000A591B491FC01E458FF4F859194918FB73C
:10014000F894EC91E22BEC938FBF089590E0FC01C2
:10015000E859FF4F2491FC01EC55FF4F3491FC010D
:10016000E057FF4FE491EE23C9F0222339F023300A
:1001700001F1A8F4213019F1223029F1F0E0EE0F5D
:10018000FF1FE458FF4FA591B4918FB7F894EC91FD
:10019000611126C030953E233C938FBF08952730D0
:1001A000A9F02830C9F0243049F7809180008F7D74
:1001B00003C0809180008F7780938000DFCF84B56B
:1001C0008F7784BDDBCF84B58F7DFBCF8091B0006E
:1001D0008F778093B000D2CF8091B0008F7DF9CF20
:1001E0003E2BDACF1F93CF93DF93182FEB010E94A2
:1001F0008700209739F460E0812FDF91CF911F9124
:100200000C94A600CF3FD10511F461E0F5CFE12FAA
:10021000F0E0E859FF4FE491E33031F140F4E13090
:10022000B1F0E230E1F0C038D1057CF7E4CFE7303F
:1002300029F1E83059F1E430B1F780918000806213
:1002400080938000D0938B00C0938A0004C084B553
:10025000806884BDC7BDDF91CF911F91089584B59B
:10026000806284BDC8BDF7CF809180008068809394
:100270008000D0938900C0938800EDCF8091B000BA
:1002800080688093B000C093B300E5CF8091B00048
:1002900080628093B000C093B400DDCF3FB7F89484
:1002A0008091090190910A01A0910B01B0910C017C
:1002B00026B5A89B05C02F3F19F00196A11DB11DC1
:1002C0003FBFBA2FA92F982F8827BC01CD01620FFD
:1002D000711D811D911D42E0660F771F881F991FB8
:1002E0004A95D1F708951F920F920FB60F921124DD
:1002F0002F933F938F939F93AF93BF93809105016B
:1003000090910601A0910701B0910801309104017C
:1003100023E0230F2D3758F50196A11DB11D209321
:1003200004018093050190930601A0930701B09307
:1003300008018091090190910A01A0910B01B091EF
:100340000C010196A11DB11D8093090190930A0132
:10035000A0930B01B0930C01BF91AF919F918F912E
:100360003F912F910F900FBE0F901F90189526E888
:10037000230F0296A11DB11DD2CFCF93DF9300D0E2
:1003800000D0CDB7DEB7789484B5826084BD84B5E3
:10039000816084BD85B5826085BD85B5816085BD80
:1003A00080916E00816080936E0010928100809138
:1003B00081008260809381008091810081608093C0
:1003C0008100809180008160809380008091B100E5
:1003D00084608093B1008091B00081608093B00010
:1003E00080917A00846080937A0080917A008260A4
:1003F00080937A0080917A00816080937A00809166
:100400007A00806880937A001092C100412C512CB0
:10041000320153940E94E502A30192010E943D0320
:1004200069837A838B839C830E94E502A3019201F6
:100430000E943D034B010E94E502A30192010E942C
:100440003D036B0189819A819093100180930F0184
:10045000BC0180910D010E94F200909214018092E3
:100460001301B401809111010E94F200D092180191
:10047000C0921701B601809115010E94F2000E94FE
:100480004E014B015C0188EEC82E83E0D82EE12C92
:10049000F12C0E944E01681979098A099B09683E6E
:1004A000734081059105A8F391E0C91AD108E108CC
:1004B000F10828EE820E23E0921EA11CB11CC1148B
:1004C000D104E104F10429F780E090E0892B09F4DC
:1004D000A1CF0E9400009ECFCF93DF93CDE0D1E06B
:1004E00089E090E0998388830E9487001B821A82AA
:1004F00070E060E089E00E94F2008AE090E09D8375
:100500008C830E9487001F821E8270E060E08AE078
:100510000E94F2008BE090E0998788870E94870014
:100520001B861A8670E060E08BE0DF91CF910C941F
:10053000F2008F929F92AF92BF92CF92DF92EF9292
:10054000FF92CF93DF93EC01688179818A819B814F
:10055000611571058105910521F464E279ED8BE562
:1005600097E02DE133EF41E050E00E943D03490167
:100570005A019B01AC01A7EAB1E40E945C036B0144
:100580007C01ACEEB4EFA50194010E946A03C60E93
:10059000D71EE81EF91EF7FE06C081E0C81AD10872
:1005A000E10880E8F80AC882D982EA82FB82C701A2
:1005B000B6019F77DF91CF91FF90EF90DF90CF90C2
:1005C000BF90AF909F908F9008958F929F92AF921F
:1005D000BF92CF92DF92EF92FF92609100017091F3
:1005E000010180910201909103016115710581055E
:1005F000910521F464E279ED8BE597E02DE133EF8D
:1006000041E050E00E943D0349015A019B01AC01C9
:10061000A7EAB1E40E945C036B017C01ACEEB4EF8D
:10062000A50194010E946A03C60ED71EE81EF91E9A
:10063000F7FE06C081E0C81AD108E10880E8F80A90
:10064000C0920001D0920101E0920201F0920301F8
:10065000C701B6019F77FF90EF90DF90CF90BF90DA
:10066000AF909F908F900895609300017093010167
:1006700080930201909303010895052E97FB1EF4C9
:1006800000940E94540357FD07D00E946F0307FC9B
:1006900003D04EF40C945403509540953095219519
:1006A0003F4F4F4F5F4F089590958095709561959E
:1006B0007F4F8F4F9F4F08950E949103A59F900DEC
:1006C000B49F900DA49F800D911D11240895B7FF34
:1006D0000C945C030E945C03821B930B0895A1E2BF
:1006E0001A2EAA1BBB1BFD010DC0AA1FBB1FEE1FAC
:1006F000FF1FA217B307E407F50720F0A21BB30BF7
:10070000E40BF50B661F771F881F991F1A9469F772
:1007100060957095809590959B01AC01BD01CF01CE
:100720000895A29FB001B39FC001A39F700D811DCA
:100730001124911DB29F700D811D1124911D0895EA
:10074000EE0FFF1F0590F491E02D0994F894FFCF70
:0407500001000000A4
:107E0000112484B714BE81FFF0D085E080938100F7
:107E100082E08093C00088E18093C10086E0809377
:107E2000C20080E18093C4008EE0C9D0259A86E02C
:107E300020E33CEF91E0309385002093840096BBD3
:107E4000B09BFECF1D9AA8958150A9F7CC24DD24C4
:107E500088248394B5E0AB2EA1E19A2EF3E0BF2EE7
:107E6000A2D0813461F49FD0082FAFD0023811F036
:107E7000013811F484E001C083E08DD089C08234E0
:107E800011F484E103C0853419F485E0A6D080C0E4
:107E9000853579F488D0E82EFF2485D0082F10E0AE
:107EA000102F00270E291F29000F111F8ED06801E7
:107EB0006FC0863521F484E090D080E0DECF843638
:107EC00009F040C070D06FD0082F6DD080E0C81688
:107ED00080E7D80618F4F601B7BEE895C0E0D1E017
:107EE00062D089930C17E1F7F0E0CF16F0E7DF06D8
:107EF00018F0F601B7BEE89568D007B600FCFDCFD4
:107F0000A601A0E0B1E02C9130E011968C91119780
:107F100090E0982F8827822B932B1296FA010C0160
:107F200087BEE89511244E5F5F4FF1E0A038BF0790
:107F300051F7F601A7BEE89507B600FCFDCF97BE46
:107F4000E89526C08437B1F42ED02DD0F82E2BD052
:107F50003CD0F601EF2C8F010F5F1F4F84911BD097
:107F6000EA94F801C1F70894C11CD11CFA94CF0C13
:107F7000D11C0EC0853739F428D08EE10CD085E9AC
:107F80000AD08FE07ACF813511F488E018D01DD067
:107F900080E101D065CF982F8091C00085FFFCCF94
:107FA0009093C60008958091C00087FFFCCF809118
:107FB000C00084FD01C0A8958091C6000895E0E648
:107FC000F0E098E1908380830895EDDF803219F02E
:107FD00088E0F5DFFFCF84E1DECF1F93182FE3DFCA
:107FE0001150E9F7F2DF1F91089580E0E8DFEE27F6
:047FF000FF270994CA
:027FFE00040479
:00000001FF
